{
  "contractName": "EmitterContract",
  "abi": [
    {
      "inputs": [
        {
          "internalType": "address payable",
          "name": "_emitter_address",
          "type": "address"
        },
        {
          "internalType": "address payable",
          "name": "_govt_address",
          "type": "address"
        },
        {
          "internalType": "address",
          "name": "_tokenId",
          "type": "address"
        }
      ],
      "stateMutability": "nonpayable",
      "type": "constructor"
    },
    {
      "anonymous": false,
      "inputs": [
        {
          "indexed": false,
          "internalType": "bool",
          "name": "",
          "type": "bool"
        },
        {
          "indexed": false,
          "internalType": "bytes",
          "name": "",
          "type": "bytes"
        }
      ],
      "name": "CallResponseEvent",
      "type": "event"
    },
    {
      "stateMutability": "payable",
      "type": "fallback"
    },
    {
      "inputs": [],
      "name": "emitterInfo",
      "outputs": [
        {
          "internalType": "int64",
          "name": "allowableCC",
          "type": "int64"
        },
        {
          "internalType": "int64",
          "name": "remainingCC",
          "type": "int64"
        },
        {
          "internalType": "int64",
          "name": "paybackCC",
          "type": "int64"
        },
        {
          "internalType": "uint256",
          "name": "dueDate",
          "type": "uint256"
        },
        {
          "internalType": "uint256",
          "name": "penalty",
          "type": "uint256"
        }
      ],
      "stateMutability": "view",
      "type": "function"
    },
    {
      "inputs": [],
      "name": "emitter_address",
      "outputs": [
        {
          "internalType": "address payable",
          "name": "",
          "type": "address"
        }
      ],
      "stateMutability": "view",
      "type": "function"
    },
    {
      "inputs": [],
      "name": "govt_address",
      "outputs": [
        {
          "internalType": "address payable",
          "name": "",
          "type": "address"
        }
      ],
      "stateMutability": "view",
      "type": "function"
    },
    {
      "inputs": [
        {
          "internalType": "address",
          "name": "token",
          "type": "address"
        },
        {
          "internalType": "bytes",
          "name": "encodedFunctionSelector",
          "type": "bytes"
        }
      ],
      "name": "redirectForToken",
      "outputs": [],
      "stateMutability": "nonpayable",
      "type": "function"
    },
    {
      "inputs": [],
      "name": "tokenId",
      "outputs": [
        {
          "internalType": "address",
          "name": "",
          "type": "address"
        }
      ],
      "stateMutability": "view",
      "type": "function"
    },
    {
      "inputs": [
        {
          "internalType": "address",
          "name": "token",
          "type": "address"
        },
        {
          "internalType": "address",
          "name": "from",
          "type": "address"
        },
        {
          "internalType": "address",
          "name": "to",
          "type": "address"
        },
        {
          "internalType": "uint256",
          "name": "amount",
          "type": "uint256"
        }
      ],
      "name": "transferFrom",
      "outputs": [
        {
          "internalType": "int64",
          "name": "responseCode",
          "type": "int64"
        }
      ],
      "stateMutability": "nonpayable",
      "type": "function"
    },
    {
      "inputs": [
        {
          "internalType": "address",
          "name": "token",
          "type": "address"
        },
        {
          "internalType": "address",
          "name": "from",
          "type": "address"
        },
        {
          "internalType": "address",
          "name": "to",
          "type": "address"
        },
        {
          "internalType": "uint256",
          "name": "serialNumber",
          "type": "uint256"
        }
      ],
      "name": "transferFromNFT",
      "outputs": [
        {
          "internalType": "int64",
          "name": "responseCode",
          "type": "int64"
        }
      ],
      "stateMutability": "nonpayable",
      "type": "function"
    },
    {
      "stateMutability": "payable",
      "type": "receive"
    },
    {
      "inputs": [
        {
          "internalType": "uint256",
          "name": "_amount",
          "type": "uint256"
        }
      ],
      "name": "transferHbar",
      "outputs": [],
      "stateMutability": "nonpayable",
      "type": "function"
    },
    {
      "inputs": [
        {
          "internalType": "int64",
          "name": "amount",
          "type": "int64"
        }
      ],
      "name": "tokenTransferToEmitter",
      "outputs": [],
      "stateMutability": "nonpayable",
      "type": "function"
    },
    {
      "inputs": [
        {
          "internalType": "bool",
          "name": "accept",
          "type": "bool"
        }
      ],
      "name": "acceptPaybackRequest",
      "outputs": [],
      "stateMutability": "nonpayable",
      "type": "function"
    },
    {
      "inputs": [
        {
          "internalType": "int64",
          "name": "amount",
          "type": "int64"
        }
      ],
      "name": "paybackTokenToGovt",
      "outputs": [],
      "stateMutability": "nonpayable",
      "type": "function"
    },
    {
      "inputs": [],
      "name": "penaltyCalculation",
      "outputs": [
        {
          "internalType": "uint256",
          "name": "penalty",
          "type": "uint256"
        },
        {
          "internalType": "uint256",
          "name": "extraDays",
          "type": "uint256"
        }
      ],
      "stateMutability": "view",
      "type": "function"
    },
    {
      "inputs": [
        {
          "internalType": "int64",
          "name": "_paybackCC",
          "type": "int64"
        }
      ],
      "name": "sendPaybackReqToEmitter",
      "outputs": [],
      "stateMutability": "nonpayable",
      "type": "function"
    },
    {
      "inputs": [],
      "name": "freezeEmitterAccount",
      "outputs": [],
      "stateMutability": "nonpayable",
      "type": "function"
    },
    {
      "inputs": [],
      "name": "unFreezeEmitterAccount",
      "outputs": [],
      "stateMutability": "nonpayable",
      "type": "function"
    },
    {
      "inputs": [],
      "name": "unFreezeEmitterAccountTandC",
      "outputs": [],
      "stateMutability": "nonpayable",
      "type": "function"
    },
    {
      "inputs": [],
      "name": "getBalance",
      "outputs": [
        {
          "internalType": "uint256",
          "name": "",
          "type": "uint256"
        }
      ],
      "stateMutability": "view",
      "type": "function"
    }
  ],
  "bytecode": "0x608060405234801562000010575f80fd5b5060405162001ecf38038062001ecf8339818101604052810190620000369190620001a5565b825f806101000a81548173ffffffffffffffffffffffffffffffffffffffff021916908373ffffffffffffffffffffffffffffffffffffffff1602179055508160015f6101000a81548173ffffffffffffffffffffffffffffffffffffffff021916908373ffffffffffffffffffffffffffffffffffffffff1602179055508060025f6101000a81548173ffffffffffffffffffffffffffffffffffffffff021916908373ffffffffffffffffffffffffffffffffffffffff160217905550505050620001fe565b5f80fd5b5f73ffffffffffffffffffffffffffffffffffffffff82169050919050565b5f6200012d8262000102565b9050919050565b6200013f8162000121565b81146200014a575f80fd5b50565b5f815190506200015d8162000134565b92915050565b5f6200016f8262000102565b9050919050565b620001818162000163565b81146200018c575f80fd5b50565b5f815190506200019f8162000176565b92915050565b5f805f60608486031215620001bf57620001be620000fe565b5b5f620001ce868287016200014d565b9350506020620001e1868287016200014d565b9250506040620001f4868287016200018f565b9150509250925092565b611cc3806200020c5f395ff3fe608060405260043610610101575f3560e01c80637a0862e511610094578063d29520d211610063578063d29520d2146102f6578063d7dfb58a14610321578063dbc5ed8414610349578063eac345ce14610371578063f8c1bb511461038757610108565b80637a0862e514610250578063818368b51461027a5780639b23d3d9146102a4578063c8b06aea146102e057610108565b806317d70f7c116100d057806317d70f7c146101ae5780633e9ec430146101d85780635b445d5d14610200578063618dc65e1461022857610108565b806302edaafb1461010a578063083c5f0f1461013257806312065fe01461014857806315dacbea1461017257610108565b3661010857005b005b348015610115575f80fd5b50610130600480360381019061012b9190611168565b6103b5565b005b34801561013d575f80fd5b506101466104ca565b005b348015610153575f80fd5b5061015c61058a565b60405161016991906111ab565b60405180910390f35b34801561017d575f80fd5b5061019860048036038101906101939190611248565b610591565b6040516101a591906112bb565b60405180910390f35b3480156101b9575f80fd5b506101c26106a9565b6040516101cf91906112e3565b60405180910390f35b3480156101e3575f80fd5b506101fe60048036038101906101f991906112fc565b6106ce565b005b34801561020b575f80fd5b5061022660048036038101906102219190611168565b610734565b005b348015610233575f80fd5b5061024e60048036038101906102499190611463565b610799565b005b34801561025b575f80fd5b506102646108bb565b60405161027191906114dd565b60405180910390f35b348015610285575f80fd5b5061028e6108e0565b60405161029b91906114dd565b60405180910390f35b3480156102af575f80fd5b506102ca60048036038101906102c59190611248565b610903565b6040516102d791906112bb565b60405180910390f35b3480156102eb575f80fd5b506102f4610a1b565b005b348015610301575f80fd5b5061030a610ab4565b6040516103189291906114f6565b60405180910390f35b34801561032c575f80fd5b5061034760048036038101906103429190611168565b610af6565b005b348015610354575f80fd5b5061036f600480360381019061036a9190611552565b610bb0565b005b34801561037c575f80fd5b50610385610d05565b005b348015610392575f80fd5b5061039b610d9e565b6040516103ac95949392919061157d565b60405180910390f35b5f61042360025f9054906101000a900473ffffffffffffffffffffffffffffffffffffffff1660015f9054906101000a900473ffffffffffffffffffffffffffffffffffffffff165f8054906101000a900473ffffffffffffffffffffffffffffffffffffffff1685610de5565b90508160035f015f6101000a81548167ffffffffffffffff021916908360070b67ffffffffffffffff1602179055508160035f0160086101000a81548167ffffffffffffffff021916908360070b67ffffffffffffffff160217905550601660030b81146104c6576040517f08c379a00000000000000000000000000000000000000000000000000000000081526004016104bd90611628565b60405180910390fd5b5050565b633b9aca006104d761058a565b11610517576040517f08c379a000000000000000000000000000000000000000000000000000000000815260040161050e906116b6565b60405180910390fd5b60015f9054906101000a900473ffffffffffffffffffffffffffffffffffffffff1673ffffffffffffffffffffffffffffffffffffffff166108fc633b9aca0090811502906040515f60405180830381858888f1935050505015801561057f573d5f803e3d5ffd5b50610588610a1b565b565b5f47905090565b5f805f61016773ffffffffffffffffffffffffffffffffffffffff166315dacbea60e01b888888886040516024016105cc94939291906116d4565b604051602081830303815290604052907bffffffffffffffffffffffffffffffffffffffffffffffffffffffff19166020820180517bffffffffffffffffffffffffffffffffffffffffffffffffffffffff83818316178352505050506040516106369190611783565b5f604051808303815f865af19150503d805f811461066f576040519150601f19603f3d011682016040523d82523d5f602084013e610674565b606091505b50915091508161068557601561069a565b8080602001905181019061069991906117cf565b5b60030b92505050949350505050565b60025f9054906101000a900473ffffffffffffffffffffffffffffffffffffffff1681565b5f8054906101000a900473ffffffffffffffffffffffffffffffffffffffff1673ffffffffffffffffffffffffffffffffffffffff166108fc8290811502906040515f60405180830381858888f19350505050158015610730573d5f803e3d5ffd5b5050565b8060035f0160109054906101000a900460070b6107519190611827565b60035f0160106101000a81548167ffffffffffffffff021916908360070b67ffffffffffffffff160217905550620d2f004261078d9190611886565b60036001018190555050565b5f8061016773ffffffffffffffffffffffffffffffffffffffff1663618dc65e60e01b85856040516024016107cf929190611901565b604051602081830303815290604052907bffffffffffffffffffffffffffffffffffffffffffffffffffffffff19166020820180517bffffffffffffffffffffffffffffffffffffffffffffffffffffffff83818316178352505050506040516108399190611783565b5f604051808303815f865af19150503d805f8114610872576040519150601f19603f3d011682016040523d82523d5f602084013e610877565b606091505b50915091507f4af4780e06fe8cb9df64b0794fa6f01399af979175bb988e35e0e57e594567bc82826040516108ad92919061193e565b60405180910390a150505050565b60015f9054906101000a900473ffffffffffffffffffffffffffffffffffffffff1681565b5f8054906101000a900473ffffffffffffffffffffffffffffffffffffffff1681565b5f805f61016773ffffffffffffffffffffffffffffffffffffffff16639b23d3d960e01b8888888860405160240161093e94939291906116d4565b604051602081830303815290604052907bffffffffffffffffffffffffffffffffffffffffffffffffffffffff19166020820180517bffffffffffffffffffffffffffffffffffffffffffffffffffffffff83818316178352505050506040516109a89190611783565b5f604051808303815f865af19150503d805f81146109e1576040519150601f19603f3d011682016040523d82523d5f602084013e6109e6565b606091505b5091509150816109f7576015610a0c565b80806020019051810190610a0b91906117cf565b5b60030b92505050949350505050565b5f610a6660025f9054906101000a900473ffffffffffffffffffffffffffffffffffffffff165f8054906101000a900473ffffffffffffffffffffffffffffffffffffffff16610efd565b60070b9050601660030b8114610ab1576040517f08c379a0000000000000000000000000000000000000000000000000000000008152600401610aa8906119b6565b60405180910390fd5b50565b5f805f6201518060036001015442610acc91906119d4565b610ad69190611a34565b90505f6298968082610ae89190611a64565b905080829350935050509091565b5f610b6460025f9054906101000a900473ffffffffffffffffffffffffffffffffffffffff165f8054906101000a900473ffffffffffffffffffffffffffffffffffffffff1660015f9054906101000a900473ffffffffffffffffffffffffffffffffffffffff1685610de5565b9050601660030b8114610bac576040517f08c379a0000000000000000000000000000000000000000000000000000000008152600401610ba390611628565b60405180910390fd5b5050565b8015610cc7575f60035f0160109054906101000a900460070b9050610bd481610af6565b5f60035f0160106101000a81548167ffffffffffffffff021916908360070b67ffffffffffffffff1602179055508060035f0160089054906101000a900460070b610c1f9190611aa5565b60035f0160086101000a81548167ffffffffffffffff021916908360070b67ffffffffffffffff1602179055505f80610c56610ab4565b80925081935050505f826305f5e100600260035f0160109054906101000a900460070b610c839190611b17565b610c8d9190611b17565b67ffffffffffffffff16610ca191906119d4565b9050610cac816106ce565b600f821115610cbe57610cbd610d05565b5b50505050610d02565b6040517f08c379a0000000000000000000000000000000000000000000000000000000008152600401610cf990611b9d565b60405180910390fd5b50565b5f610d5060025f9054906101000a900473ffffffffffffffffffffffffffffffffffffffff165f8054906101000a900473ffffffffffffffffffffffffffffffffffffffff1661100f565b60070b9050601660030b8114610d9b576040517f08c379a0000000000000000000000000000000000000000000000000000000008152600401610d9290611c05565b60405180910390fd5b50565b6003805f015f9054906101000a900460070b90805f0160089054906101000a900460070b90805f0160109054906101000a900460070b908060010154908060020154905085565b5f805f61016773ffffffffffffffffffffffffffffffffffffffff1663eca3691760e01b88888888604051602401610e209493929190611c23565b604051602081830303815290604052907bffffffffffffffffffffffffffffffffffffffffffffffffffffffff19166020820180517bffffffffffffffffffffffffffffffffffffffffffffffffffffffff8381831617835250505050604051610e8a9190611783565b5f604051808303815f865af19150503d805f8114610ec3576040519150601f19603f3d011682016040523d82523d5f602084013e610ec8565b606091505b509150915081610ed9576015610eee565b80806020019051810190610eed91906117cf565b5b60030b92505050949350505050565b5f805f61016773ffffffffffffffffffffffffffffffffffffffff166352f9138760e01b8686604051602401610f34929190611c66565b604051602081830303815290604052907bffffffffffffffffffffffffffffffffffffffffffffffffffffffff19166020820180517bffffffffffffffffffffffffffffffffffffffffffffffffffffffff8381831617835250505050604051610f9e9190611783565b5f604051808303815f865af19150503d805f8114610fd7576040519150601f19603f3d011682016040523d82523d5f602084013e610fdc565b606091505b509150915081610fed576015611002565b8080602001905181019061100191906117cf565b5b60030b9250505092915050565b5f805f61016773ffffffffffffffffffffffffffffffffffffffff16635b8f858460e01b8686604051602401611046929190611c66565b604051602081830303815290604052907bffffffffffffffffffffffffffffffffffffffffffffffffffffffff19166020820180517bffffffffffffffffffffffffffffffffffffffffffffffffffffffff83818316178352505050506040516110b09190611783565b5f604051808303815f865af19150503d805f81146110e9576040519150601f19603f3d011682016040523d82523d5f602084013e6110ee565b606091505b5091509150816110ff576015611114565b8080602001905181019061111391906117cf565b5b60030b9250505092915050565b5f604051905090565b5f80fd5b5f80fd5b5f8160070b9050919050565b61114781611132565b8114611151575f80fd5b50565b5f813590506111628161113e565b92915050565b5f6020828403121561117d5761117c61112a565b5b5f61118a84828501611154565b91505092915050565b5f819050919050565b6111a581611193565b82525050565b5f6020820190506111be5f83018461119c565b92915050565b5f73ffffffffffffffffffffffffffffffffffffffff82169050919050565b5f6111ed826111c4565b9050919050565b6111fd816111e3565b8114611207575f80fd5b50565b5f81359050611218816111f4565b92915050565b61122781611193565b8114611231575f80fd5b50565b5f813590506112428161121e565b92915050565b5f805f80608085870312156112605761125f61112a565b5b5f61126d8782880161120a565b945050602061127e8782880161120a565b935050604061128f8782880161120a565b92505060606112a087828801611234565b91505092959194509250565b6112b581611132565b82525050565b5f6020820190506112ce5f8301846112ac565b92915050565b6112dd816111e3565b82525050565b5f6020820190506112f65f8301846112d4565b92915050565b5f602082840312156113115761131061112a565b5b5f61131e84828501611234565b91505092915050565b5f80fd5b5f80fd5b5f601f19601f8301169050919050565b7f4e487b71000000000000000000000000000000000000000000000000000000005f52604160045260245ffd5b6113758261132f565b810181811067ffffffffffffffff821117156113945761139361133f565b5b80604052505050565b5f6113a6611121565b90506113b2828261136c565b919050565b5f67ffffffffffffffff8211156113d1576113d061133f565b5b6113da8261132f565b9050602081019050919050565b828183375f83830152505050565b5f611407611402846113b7565b61139d565b9050828152602081018484840111156114235761142261132b565b5b61142e8482856113e7565b509392505050565b5f82601f83011261144a57611449611327565b5b813561145a8482602086016113f5565b91505092915050565b5f80604083850312156114795761147861112a565b5b5f6114868582860161120a565b925050602083013567ffffffffffffffff8111156114a7576114a661112e565b5b6114b385828601611436565b9150509250929050565b5f6114c7826111c4565b9050919050565b6114d7816114bd565b82525050565b5f6020820190506114f05f8301846114ce565b92915050565b5f6040820190506115095f83018561119c565b611516602083018461119c565b9392505050565b5f8115159050919050565b6115318161151d565b811461153b575f80fd5b50565b5f8135905061154c81611528565b92915050565b5f602082840312156115675761156661112a565b5b5f6115748482850161153e565b91505092915050565b5f60a0820190506115905f8301886112ac565b61159d60208301876112ac565b6115aa60408301866112ac565b6115b7606083018561119c565b6115c4608083018461119c565b9695505050505050565b5f82825260208201905092915050565b7f5472616e73666572204661696c656400000000000000000000000000000000005f82015250565b5f611612600f836115ce565b915061161d826115de565b602082019050919050565b5f6020820190508181035f83015261163f81611606565b9050919050565b7f42616c616e6365206f6620656d6974746572206163636f756e74206973206e6f5f8201527f7420656e6f75676820746f20756e667265657a65000000000000000000000000602082015250565b5f6116a06034836115ce565b91506116ab82611646565b604082019050919050565b5f6020820190508181035f8301526116cd81611694565b9050919050565b5f6080820190506116e75f8301876112d4565b6116f460208301866112d4565b61170160408301856112d4565b61170e606083018461119c565b95945050505050565b5f81519050919050565b5f81905092915050565b5f5b8381101561174857808201518184015260208101905061172d565b5f8484015250505050565b5f61175d82611717565b6117678185611721565b935061177781856020860161172b565b80840191505092915050565b5f61178e8284611753565b915081905092915050565b5f8160030b9050919050565b6117ae81611799565b81146117b8575f80fd5b50565b5f815190506117c9816117a5565b92915050565b5f602082840312156117e4576117e361112a565b5b5f6117f1848285016117bb565b91505092915050565b7f4e487b71000000000000000000000000000000000000000000000000000000005f52601160045260245ffd5b5f61183182611132565b915061183c83611132565b925082820190507fffffffffffffffffffffffffffffffffffffffffffffffff80000000000000008112677fffffffffffffff821317156118805761187f6117fa565b5b92915050565b5f61189082611193565b915061189b83611193565b92508282019050808211156118b3576118b26117fa565b5b92915050565b5f82825260208201905092915050565b5f6118d382611717565b6118dd81856118b9565b93506118ed81856020860161172b565b6118f68161132f565b840191505092915050565b5f6040820190506119145f8301856112d4565b818103602083015261192681846118c9565b90509392505050565b6119388161151d565b82525050565b5f6040820190506119515f83018561192f565b818103602083015261196381846118c9565b90509392505050565b7f4661696c656420746f20556e667265657a6520746f6b656e00000000000000005f82015250565b5f6119a06018836115ce565b91506119ab8261196c565b602082019050919050565b5f6020820190508181035f8301526119cd81611994565b9050919050565b5f6119de82611193565b91506119e983611193565b9250828203905081811115611a0157611a006117fa565b5b92915050565b7f4e487b71000000000000000000000000000000000000000000000000000000005f52601260045260245ffd5b5f611a3e82611193565b9150611a4983611193565b925082611a5957611a58611a07565b5b828204905092915050565b5f611a6e82611193565b9150611a7983611193565b9250828202611a8781611193565b91508282048414831517611a9e57611a9d6117fa565b5b5092915050565b5f611aaf82611132565b9150611aba83611132565b92508282039050677fffffffffffffff81137fffffffffffffffffffffffffffffffffffffffffffffffff800000000000000082121715611afe57611afd6117fa565b5b92915050565b5f67ffffffffffffffff82169050919050565b5f611b2182611b04565b9150611b2c83611b04565b9250828202611b3a81611b04565b9150808214611b4c57611b4b6117fa565b5b5092915050565b7f456d697474657220646f6573206e6f74207061796261636b20434300000000005f82015250565b5f611b87601b836115ce565b9150611b9282611b53565b602082019050919050565b5f6020820190508181035f830152611bb481611b7b565b9050919050565b7f4661696c656420746f20467265657a6520746f6b656e000000000000000000005f82015250565b5f611bef6016836115ce565b9150611bfa82611bbb565b602082019050919050565b5f6020820190508181035f830152611c1c81611be3565b9050919050565b5f608082019050611c365f8301876112d4565b611c4360208301866112d4565b611c5060408301856112d4565b611c5d60608301846112ac565b95945050505050565b5f604082019050611c795f8301856112d4565b611c8660208301846112d4565b939250505056fea2646970667358221220d2a3a5d91d22b8ba5fed7c407d915b400d6603e49c7491533cad7ef6c7d8059864736f6c63430008140033",
  "immutableReferences": {},
  "source": "// SPDX-License-Identifier: GPL-3.0\npragma solidity >=0.7.0 <0.9.0;\n\n// Compile with remix for remote imports to work - otherwise keep precompiles locally\n// import \"../precompiled-contracts/HederaTokenService.sol\";\n// import \"../precompiled-contracts/HederaResponseCodes.sol\";\nimport \"../precompiled-contracts-2/HederaTokenService.sol\";\nimport \"../precompiled-contracts-2/HederaResponseCodes.sol\";\n\n\n// Fields required for emitter\nstruct Emitter{\n    int64 allowableCC;//300   lockFund=300*2=600Hbar\n    int64 remainingCC;//300\n    int64 paybackCC;//30\n    uint dueDate;\n    uint penalty;\n}\ncontract EmitterContract is HederaTokenService{\n\n     // Emitter and Government account address\n     address payable public emitter_address;\n     address payable public govt_address;\n     address public tokenId;\n\n     // To store the emitter info\n     Emitter public emitterInfo;\n\n     constructor(address payable _emitter_address,address payable _govt_address,address _tokenId){\n        emitter_address=_emitter_address;\n        govt_address=_govt_address;\n        tokenId=_tokenId;\n     }\n \n    // Lock Funds to the Contract from the Emitter account\n    receive() external payable {}\n\n    fallback() external payable {}\n\n\n    // Hbar transfer to Emitter account address\n    function transferHbar( uint _amount) public {\n        emitter_address.transfer(_amount);\n    }\n\n\n    //  Transfer Carbon token to Emitter account address\n\n     function tokenTransferToEmitter(int64 amount) public {\n        int response = HederaTokenService.transferToken(tokenId, govt_address,emitter_address , amount);\n        \n        emitterInfo.allowableCC=amount;\n        emitterInfo.remainingCC=amount;\n    \n        if (response != HederaResponseCodes.SUCCESS) {\n            revert (\"Transfer Failed\");\n        }\n    }\n\n    // Emitter accept Payback request\n    function acceptPaybackRequest(bool accept) public {\n        if(accept){\n            // Call payback to govt transfer function\n            int64 amount=emitterInfo.paybackCC;\n            paybackTokenToGovt(amount);\n            emitterInfo.paybackCC=0;\n            emitterInfo.remainingCC=(emitterInfo.remainingCC)-amount;\n\n            // Call penalty check function (on the basis of due date)\n            uint penalty;\n            uint extraDays;\n            (penalty,extraDays)=penaltyCalculation();\n\n\n            // Call tansferHbar Function to send Hbar from Contract address to Emitter address\n            uint _amount=uint64(emitterInfo.paybackCC)*2*100000000-penalty;\n            transferHbar(_amount);\n\n            // Check condition for freeze\n            if(extraDays>15){\n                freezeEmitterAccount();\n            }\n            \n        }else{\n            revert(\"Emitter does not payback CC\");\n        }\n\n    }\n\n    //  Payback Carbon token to govt account address\n\n     function paybackTokenToGovt(int64 amount) public {\n        int response = HederaTokenService.transferToken(tokenId,emitter_address, govt_address , amount);\n    \n        if (response != HederaResponseCodes.SUCCESS) {\n            revert (\"Transfer Failed\");\n        }\n    }\n\n    // function to calculate penalty\n    function penaltyCalculation() public view returns(uint penalty, uint extraDays){\n        // for 1 day= 1 Hbar\n        uint _extraTime=(block.timestamp-(emitterInfo.dueDate))/(24*3600);\n\n        uint _penalty=_extraTime*10000000;\n            return (_penalty,_extraTime);\n    \n    }\n\n    \n\n    // Function to send payback request to Emitter\n    function sendPaybackReqToEmitter(int64 _paybackCC)public{\n        emitterInfo.paybackCC=(emitterInfo.paybackCC)+_paybackCC;\n        \n        // Set due date functionality // by default due date=10 days\n        emitterInfo.dueDate=block.timestamp + (10*24*3600);\n         \n    }\n\n\n    // Freeze Emitter account-----> On the basis platform rules\n    function freezeEmitterAccount()public{\n        int response= HederaTokenService.freezeToken(tokenId, emitter_address);\n        if (response != HederaResponseCodes.SUCCESS) {\n            revert (\"Failed to Freeze token\");\n        }\n    }\n\n    // Unfreeze Emitter account-----> On the basis platform rules\n    function unFreezeEmitterAccount()public{\n        int response= HederaTokenService.unfreezeToken(tokenId, emitter_address);\n        if (response != HederaResponseCodes.SUCCESS) {\n            revert (\"Failed to Unfreeze token\");\n        }\n    }\n\n\n\n// write unfreezeEmitter T&C \nfunction unFreezeEmitterAccountTandC() public{\n    //Need to pay extra Hbar-> 10 Hbar\n    require(getBalance()>1000000000,\"Balance of emitter account is not enough to unfreeze\");\n     govt_address.transfer(1000000000);\n     unFreezeEmitterAccount();\n\n}\n\n// Where should we call freezeEmitterAccount() function\n\n\n\n    //============================================ \n    // CHECKING THE HBAR BALANCE OF THE CONTRACT\n    //============================================ \n    function getBalance() public view returns (uint) {\n        return address(this).balance;\n    }\n}",
  "sourcePath": "/Users/ravisatyam/Desktop/ravi/Green_Hackers/back-end/contract/contracts/EmitterContract.sol",
  "compiler": {
    "name": "solc",
    "version": "0.8.20+commit.a1b79de6.Emscripten.clang"
  },
  "schemaVersion": "3.4.14",
  "updatedAt": "2023-06-16T10:27:06.974Z",
  "devdoc": {
    "kind": "dev",
    "methods": {
      "redirectForToken(address,bytes)": {
        "params": {
          "encodedFunctionSelector": "The function selector from the ERC20 interface + the bytes input for the function called",
          "token": "The token address"
        }
      },
      "transferFrom(address,address,address,uint256)": {
        "params": {
          "amount": "The amount of tokens to transfer from `from` to `to`",
          "from": "The account address of the owner of the token, on the behalf of which to transfer `amount` tokens",
          "to": "The account address of the receiver of the `amount` tokens",
          "token": "The address of the fungible Hedera token to transfer"
        },
        "returns": {
          "responseCode": "The response code for the status of the request. SUCCESS is 22."
        }
      },
      "transferFromNFT(address,address,address,uint256)": {
        "params": {
          "from": "The account address of the owner of `serialNumber` of `token`",
          "serialNumber": "The NFT serial number to transfer",
          "to": "The account address of the receiver of `serialNumber`",
          "token": "The address of the non-fungible Hedera token to transfer"
        },
        "returns": {
          "responseCode": "The response code for the status of the request. SUCCESS is 22."
        }
      }
    },
    "version": 1
  },
  "userdoc": {
    "events": {
      "CallResponseEvent(bool,bytes)": {
        "notice": "Generic event"
      }
    },
    "kind": "user",
    "methods": {
      "redirectForToken(address,bytes)": {
        "notice": "Redirect for token"
      },
      "transferFrom(address,address,address,uint256)": {
        "notice": "Only applicable to fungible tokens"
      },
      "transferFromNFT(address,address,address,uint256)": {
        "notice": "Transfers `serialNumber` of `token` from `from` to `to` using the allowance mechanism. Only applicable to NFT tokens"
      }
    },
    "version": 1
  }
}